:100000000C943F000C94E8000C940B010C94BF007E
:100010000C9451000C9451000C9451000C9451001C
:100020000C9451000C9451000C9451000C9451000C
:100030000C9451000C9451000C9451000C945100FC
:100040000C9451000C9451000C9451000C945100EC
:100050000C9451000C9451000C9451000C945100DC
:100060000C9451000C945100B401A9019E0193011C
:10007000880145014E015C01670172017D01112477
:100080001FBECFEFD8E0DEBFCDBF21E0A0E0B1E0E2
:1000900001C01D92A830B207E1F70E9453000C94F2
:1000A000FF010C9400000E9460000E94960084B141
:1000B0008C7F84B985B1836085B90E94E701FDCF4B
:1000C0008AB1806F8AB984B1806384B984B5836052
:1000D00084BD84B5806A84BD85B5846085BD8FEF9D
:1000E00088BD87BD0895E4E0F1E0808187BD80810F
:1000F00088BD08958BB180618BB9E4E0F1E0808127
:1001000087BD808188BD089587EF87BD8FEF88BD4B
:1001100008958FEF87BD87EF88BD08958BB1806804
:100120008BB908958BB18F778BB908958AB18B7F86
:100130008AB98AB1877F8AB984B18C7F84B98BB13F
:1001400084608BB98BB188608BB985B1836085B9C8
:10015000E9E6F0E080818360808380818C60808329
:100160008DB383608DBBE8E6F0E0808181608083A1
:10017000EBE6F0E0808183608083789408951F929D
:100180000F920FB60F9211248F939F9318990DC061
:1001900082E090E0909301018093000181E090E083
:1001A00090930701809306010CC019990AC082E060
:1001B00090E0909301018093000190930701809358
:1001C00006019F918F910F900FBE0F901F90189571
:1001D0001F920F920FB60F9211248F939F938091CD
:1001E00002019091030105977CF4809102019091A6
:1001F00003010196909303018093020181E090E056
:1002000090930101809300019F918F910F900FBEF9
:100210000F901F9018951F920F920FB60F921124F6
:100220002F938F939F9380910201909103018C3FB4
:100230009F4F7CF080910201909103010197909370
:1002400003018093020181E090E09093010180938B
:1002500000019F918F912F910F900FBE0F901F90D3
:1002600018958091000190910101019709F086C0D5
:10027000E0910201F09103013596EB30F10508F0B1
:100280007DC0EC5CFF4F0C94F9010E9492008FEF4F
:1002900090E0909305018093040108950E948E00E0
:1002A0008BB18F7E8BB98CEF90E09093050180939A
:1002B00004010E94730008950E948E0089EF90E06F
:1002C00090930501809304010E94730008950E9499
:1002D0008E0086EF90E090930501809304010E94C8
:1002E000730008950E948E0083EF90E090930501C3
:1002F000809304010E94730008950E948E0080EF95
:1003000090E090930501809304010E94730008958A
:100310000E948E008CEF90E0909305018093040181
:100320000E947A0008950E948E0089EF90E09093D9
:100330000501809304010E947A0008950E948E00B6
:1003400086EF90E090930501809304010E947A006B
:1003500008950E948E0083EF90E0909305018093B2
:1003600004010E947A0008950E948E0080EF90E0C0
:1003700090930501809304010E947A000895809172
:10038000000190910101029709F580910601909179
:1003900007018130910519F0029769F008950E94D4
:1003A0008E008BB18F7E8BB90E9484001092030166
:1003B0001092020108950E948E008BB18F7E8BB93E
:1003C0000E94890010920301109202010895809109
:1003D000000190910101019719F40E9431010895E3
:1003E0008091000190910101029711F40E94BF01D8
:1003F0000895EE0FFF1F0590F491E02D0994F894F5
:02040000FFCF2C
:00000001FF
